D0012312312312405103920009120753   18000000000000250000000000250061000000190523031458090550S99001200140148290000000000001520791914300213661714384676400000WFB001000000000WFB001ZEL*STEVEN PEREZ                                                                   55402     MN USAMDSMDSCT6 21090519052300000018059905290019018400000000000008400000000000000000000000000000000000000000000000000000000000008402000DMC2010001LP190523050   NNYNPN17944      4122155468                  1US00000001N190523051905230184084000000000000000000000MDS1Q6MDZ0523  0000000548200123123123
D0012312312312405107921004314827   18000000000000550000000000550061000000190523034545090550S99001282140148290000000000001520791914300213664896580517100000WFB001000000000WFB001ZEL*KYMANI MITCHELL                                                                55402     MN USAMDJMDJCT6 21090519052300000018059905550019018400000000000008400000000000000000000000000000000000000000000000000000000000008402000DMC2010001MM190523050   NNYNNN17944      4122155468                  1US00000001N190523051905230184084000000000000000000000MDJ0G6SG70523  0000001661700123123123                                                                                                    
D0000001794412405115410012094159   18000000000000050000000000050061000000190608042751090550S99001205451548290000000000001520791915900220617644308662000000WFB001000000000WFB001ZEL*MICHELLE WEBB                                                                  55402     MN USAMDJMDJCT6 21090519060800000018059015030019018400000000000008400000000000000000000000000000000000000000000000000000000000008402000DMC2010001MM190608060   NNYNNN17944      4122155468                  1US00000001N190608061906100184084000000000000000000000MDJ0OKZG70608  0000002002100000017944
D0000001794412405445798400102738   18000000000000800000000000800061000000190608044748090550S99001200140148290000000000001520791915900220620842822693200000WFB001000000000WFB001ZEL*Sheyla Galbes                                                                  55402     MN USAMDJMDJCT6 21090519060800000018059015030019018400000000000008400000000000000000000000000000000000000000000000000000000000008402000DMC2010001LP190608060   NNYNPN17944      4122155468                  1US00000001N190608061906100184084000000000000000000000MDJ167ADZ0608  0000000581100000017944
D0000001794412405174240001839936   18000000000004000000000004000061000000190608043754090550S99001282140148290000000000001520791915900220619242422529000000WFB001000000000WFB001ZEL*TAMMY LEHTINEN                                                                 55402     MN USAMDJMDJCT6 21090519060800000018059015030019018400000000000008400000000000000000000000000000000000000000000000000000000000008402000DMC2010001MM190608060   NNYNNN17944      4122155468                  1US00000001N190608061906100184084000000000000000000000MDJ1487DZ0608  0000001634600000017944
D0000001794412405463771394420710   18000000000000360000000000360061000000190608045107090550S99001200140148290000000000001520791915900220621372527419300000WFB001000000000WFB001ZEL*RHIANNA WARD                                                                   55402     MN USAMDJMDJCT6 21090519060800000018059015030019018400000000000008400000000000000000000000000000000000000000000000000000000000008402000DMC2010001MM190608060   NNYNNN17944      4122155468                  1US00000001N190608061906100184084000000000000000000000MDJ0S2EG70608  0000000545000000017944
D0012312312312405141619476762741   18000000000000700000000000700061000000190608043549090550S99001200140148290000000000001538029915900220618900418731800000BAC001000000000BAC001ZEL*STEPHEN MANUEL                                                                 30308     GA USAMDJMDJCT6 21090519060800000018059015070019018400000000000008400000000000000000000000000000000000000000000000000000000000008402000DMC2010001MM190608060   NNYNNN17993      000252563717                1US00000001N190608061906100184084000000000000000000000MDJ14U0DZ0608  0000000545000123123123
D0012312312312405107749188824562   18000000000000180000000000180061000000190608043308090550S99001205140148290000000000001538029915900220618454204330800000BAC001000000000BAC001ZEL*REGINALD JONES                                                                 30308     GA USAMDSMDSCT6 21090519060800000018059015070019018400000000000008400000000000000000000000000000000000000000000000000000000000008402000DMC2010001MM190608060   NNYNNN17993      000252563717                1US00000001N190608061906100184084000000000000000000000MDS14B6DZ0608  0000001222800123123123
D0012312312312405111840014563559   18000000000000700000000000700061000000190608044148090550S99001282140148290000000000001538029915900220619914460143900000BAC001000000000BAC001ZEL*CHERYL GREEN                                                                   30308     GA USAMDSMDSCT6 21090519060800000018059015070019018400000000000008400000000000000000000000000000000000000000000000000000000000008402000DMC2010001MM190608060   NNYNNN17993      000252563717                1US00000001N190608061906100184084000000000000000000000MDS0RA4G70608  0000000548200123123123
D0012312312312405143772359584274   18000000000002350000000002350061000000190608043406090550S9900120014014829000000000000153802991590022061861251PQVPY00000BAC001000000000BAC001ZEL*RYAN FLEENER                                                                   30308     GA USAMDJMDJCT6 21090519060800000018059015070019018400000000000008400000000000000000000000000000000000000000000000000000000000008402000DMC2010001MM190608060   NNYNNN17993      000252563717                1US00000001N190608061906100184084000000000000000000000MDJ0PRVG70608  0000000369500123123123
D0000001525014425102721783683011   20000000000001000000000001000061000000190123170800190050S540014504515653600000000000075345318027000000022674272567000        A00000000000DEBFB *KYIAH N TYLA HUNNI                                                             94025     CA USAMDSMDSCT6 07000218012700000014743000290029018400000000000008400000000000000000000000000000000000000000000000000000000000008402820DMC2010001MS18012701    NNNNNN14743      4128605771                  1US00000001N180127011801290184084000000000000000000000               0000000531300000014743
